{
  "_format": "hh-sol-artifact-1",
  "contractName": "SimpleAuction",
  "sourceName": "contracts/SimpleAuction.sol",
  "abi": [
    {
      "anonymous": false,
      "inputs": [
        {
          "indexed": true,
          "internalType": "string",
          "name": "listingId",
          "type": "string"
        },
        {
          "indexed": false,
          "internalType": "uint256",
          "name": "number",
          "type": "uint256"
        },
        {
          "indexed": true,
          "internalType": "address",
          "name": "addedBy",
          "type": "address"
        }
      ],
      "name": "NumberSet",
      "type": "event"
    },
    {
      "inputs": [
        {
          "internalType": "string",
          "name": "_listingId",
          "type": "string"
        }
      ],
      "name": "getBid",
      "outputs": [
        {
          "internalType": "uint256",
          "name": "number",
          "type": "uint256"
        },
        {
          "internalType": "address",
          "name": "addedBy",
          "type": "address"
        }
      ],
      "stateMutability": "view",
      "type": "function"
    },
    {
      "inputs": [
        {
          "internalType": "string",
          "name": "",
          "type": "string"
        }
      ],
      "name": "listings",
      "outputs": [
        {
          "internalType": "uint256",
          "name": "number",
          "type": "uint256"
        },
        {
          "internalType": "address",
          "name": "addedBy",
          "type": "address"
        }
      ],
      "stateMutability": "view",
      "type": "function"
    },
    {
      "inputs": [
        {
          "internalType": "string",
          "name": "_listingId",
          "type": "string"
        },
        {
          "internalType": "uint256",
          "name": "_number",
          "type": "uint256"
        }
      ],
      "name": "setBid",
      "outputs": [],
      "stateMutability": "nonpayable",
      "type": "function"
    }
  ],
  "bytecode": "0x608060405234801561001057600080fd5b50610603806100206000396000f3fe608060405234801561001057600080fd5b50600436106100415760003560e01c806357643d511461004657806377dec6c314610062578063f985371314610093575b600080fd5b610060600480360381019061005b919061040c565b6100c4565b005b61007c60048036038101906100779190610468565b6101b2565b60405161008a929190610501565b60405180910390f35b6100ad60048036038101906100a89190610468565b61020c565b6040516100bb929190610501565b60405180910390f35b806000836040516100d5919061059b565b908152602001604051809103902060000181905550336000836040516100fb919061059b565b908152602001604051809103902060010160006101000a81548173ffffffffffffffffffffffffffffffffffffffff021916908373ffffffffffffffffffffffffffffffffffffffff1602179055503373ffffffffffffffffffffffffffffffffffffffff168260405161016f919061059b565b60405180910390207f9dbab9e9133a10f787092b297f8489895caf7add7c3d26518bc7916a95afce48836040516101a691906105b2565b60405180910390a35050565b6000818051602081018201805184825260208301602085012081835280955050505050506000915090508060000154908060010160009054906101000a900473ffffffffffffffffffffffffffffffffffffffff16905082565b60008060008360405161021f919061059b565b9081526020016040518091039020600001549150600083604051610243919061059b565b908152602001604051809103902060010160009054906101000a900473ffffffffffffffffffffffffffffffffffffffff169050915091565b6000604051905090565b600080fd5b600080fd5b600080fd5b600080fd5b6000601f19601f8301169050919050565b7f4e487b7100000000000000000000000000000000000000000000000000000000600052604160045260246000fd5b6102e38261029a565b810181811067ffffffffffffffff82111715610302576103016102ab565b5b80604052505050565b600061031561027c565b905061032182826102da565b919050565b600067ffffffffffffffff821115610341576103406102ab565b5b61034a8261029a565b9050602081019050919050565b82818337600083830152505050565b600061037961037484610326565b61030b565b90508281526020810184848401111561039557610394610295565b5b6103a0848285610357565b509392505050565b600082601f8301126103bd576103bc610290565b5b81356103cd848260208601610366565b91505092915050565b6000819050919050565b6103e9816103d6565b81146103f457600080fd5b50565b600081359050610406816103e0565b92915050565b6000806040838503121561042357610422610286565b5b600083013567ffffffffffffffff8111156104415761044061028b565b5b61044d858286016103a8565b925050602061045e858286016103f7565b9150509250929050565b60006020828403121561047e5761047d610286565b5b600082013567ffffffffffffffff81111561049c5761049b61028b565b5b6104a8848285016103a8565b91505092915050565b6104ba816103d6565b82525050565b600073ffffffffffffffffffffffffffffffffffffffff82169050919050565b60006104eb826104c0565b9050919050565b6104fb816104e0565b82525050565b600060408201905061051660008301856104b1565b61052360208301846104f2565b9392505050565b600081519050919050565b600081905092915050565b60005b8381101561055e578082015181840152602081019050610543565b60008484015250505050565b60006105758261052a565b61057f8185610535565b935061058f818560208601610540565b80840191505092915050565b60006105a7828461056a565b915081905092915050565b60006020820190506105c760008301846104b1565b9291505056fea26469706673582212201b3c1e26a326ceabc899ca997d87d95047eb0092e38e3965d921ba74862a430b64736f6c63430008120033",
  "linkReferences": {},
  "deployedLinkReferences": {}
}